{
  "_format": "hh-sol-artifact-1",
  "contractName": "Nft",
  "sourceName": "contracts/Nft.sol",
  "abi": [
    {
      "inputs": [],
      "stateMutability": "nonpayable",
      "type": "constructor"
    },
    {
      "anonymous": false,
      "inputs": [
        {
          "indexed": true,
          "internalType": "address",
          "name": "_from",
          "type": "address"
        },
        {
          "indexed": false,
          "internalType": "uint8",
          "name": "_id",
          "type": "uint8"
        }
      ],
      "name": "Burn",
      "type": "event"
    },
    {
      "anonymous": false,
      "inputs": [
        {
          "indexed": true,
          "internalType": "address",
          "name": "_to",
          "type": "address"
        },
        {
          "indexed": false,
          "internalType": "uint8",
          "name": "_id",
          "type": "uint8"
        }
      ],
      "name": "Claim",
      "type": "event"
    },
    {
      "anonymous": false,
      "inputs": [
        {
          "indexed": true,
          "internalType": "address",
          "name": "_from",
          "type": "address"
        },
        {
          "indexed": true,
          "internalType": "address",
          "name": "_to",
          "type": "address"
        },
        {
          "indexed": false,
          "internalType": "uint8",
          "name": "_id",
          "type": "uint8"
        }
      ],
      "name": "Transfer",
      "type": "event"
    },
    {
      "stateMutability": "payable",
      "type": "fallback"
    },
    {
      "inputs": [],
      "name": "NFT_NAME",
      "outputs": [
        {
          "internalType": "string",
          "name": "",
          "type": "string"
        }
      ],
      "stateMutability": "view",
      "type": "function"
    },
    {
      "inputs": [
        {
          "internalType": "uint8",
          "name": "",
          "type": "uint8"
        }
      ],
      "name": "NftToAddress",
      "outputs": [
        {
          "internalType": "address",
          "name": "",
          "type": "address"
        }
      ],
      "stateMutability": "view",
      "type": "function"
    },
    {
      "inputs": [
        {
          "internalType": "address",
          "name": "",
          "type": "address"
        }
      ],
      "name": "NumberOfNfts",
      "outputs": [
        {
          "internalType": "uint8",
          "name": "",
          "type": "uint8"
        }
      ],
      "stateMutability": "view",
      "type": "function"
    },
    {
      "inputs": [],
      "name": "PRICE",
      "outputs": [
        {
          "internalType": "uint256",
          "name": "",
          "type": "uint256"
        }
      ],
      "stateMutability": "view",
      "type": "function"
    },
    {
      "inputs": [
        {
          "internalType": "uint8",
          "name": "_id",
          "type": "uint8"
        }
      ],
      "name": "burn",
      "outputs": [],
      "stateMutability": "nonpayable",
      "type": "function"
    },
    {
      "inputs": [],
      "name": "claimNft",
      "outputs": [],
      "stateMutability": "payable",
      "type": "function"
    },
    {
      "inputs": [
        {
          "internalType": "address",
          "name": "",
          "type": "address"
        }
      ],
      "name": "hasAccount",
      "outputs": [
        {
          "internalType": "bool",
          "name": "",
          "type": "bool"
        }
      ],
      "stateMutability": "view",
      "type": "function"
    },
    {
      "inputs": [],
      "name": "i_owner",
      "outputs": [
        {
          "internalType": "address",
          "name": "",
          "type": "address"
        }
      ],
      "stateMutability": "view",
      "type": "function"
    },
    {
      "inputs": [
        {
          "internalType": "string",
          "name": "_background",
          "type": "string"
        },
        {
          "internalType": "string",
          "name": "_tie",
          "type": "string"
        },
        {
          "internalType": "string",
          "name": "_suit",
          "type": "string"
        },
        {
          "internalType": "string",
          "name": "_base",
          "type": "string"
        },
        {
          "internalType": "string",
          "name": "_dna",
          "type": "string"
        },
        {
          "internalType": "string",
          "name": "_cid",
          "type": "string"
        }
      ],
      "name": "mint",
      "outputs": [],
      "stateMutability": "nonpayable",
      "type": "function"
    },
    {
      "inputs": [
        {
          "internalType": "uint256",
          "name": "",
          "type": "uint256"
        }
      ],
      "name": "nft",
      "outputs": [
        {
          "internalType": "uint256",
          "name": "id",
          "type": "uint256"
        },
        {
          "internalType": "string",
          "name": "background",
          "type": "string"
        },
        {
          "internalType": "string",
          "name": "tie",
          "type": "string"
        },
        {
          "internalType": "string",
          "name": "suit",
          "type": "string"
        },
        {
          "internalType": "string",
          "name": "base",
          "type": "string"
        },
        {
          "internalType": "string",
          "name": "dna",
          "type": "string"
        },
        {
          "internalType": "string",
          "name": "cid",
          "type": "string"
        },
        {
          "internalType": "string",
          "name": "uri",
          "type": "string"
        },
        {
          "internalType": "address",
          "name": "owner",
          "type": "address"
        }
      ],
      "stateMutability": "view",
      "type": "function"
    },
    {
      "inputs": [
        {
          "internalType": "uint8",
          "name": "_id",
          "type": "uint8"
        },
        {
          "internalType": "address",
          "name": "_to",
          "type": "address"
        }
      ],
      "name": "transfer",
      "outputs": [],
      "stateMutability": "nonpayable",
      "type": "function"
    },
    {
      "inputs": [
        {
          "internalType": "uint256",
          "name": "",
          "type": "uint256"
        }
      ],
      "name": "users",
      "outputs": [
        {
          "internalType": "address",
          "name": "",
          "type": "address"
        }
      ],
      "stateMutability": "view",
      "type": "function"
    },
    {
      "inputs": [],
      "name": "withdraw",
      "outputs": [],
      "stateMutability": "nonpayable",
      "type": "function"
    },
    {
      "stateMutability": "payable",
      "type": "receive"
    }
  ],
  "bytecode": "0x60a060405234801561001057600080fd5b503373ffffffffffffffffffffffffffffffffffffffff1660808173ffffffffffffffffffffffffffffffffffffffff16815250506000600260006101000a81548160ff021916908360ff1602179055506080516121e361008a60003960008181610ab3015281816112dc015261130001526121e36000f3fe6080604052600436106100c65760003560e01c80638d859f3e1161007f578063c8e40fbf11610059578063c8e40fbf14610267578063d731dfce146102a4578063dba6335f146102e1578063ef5f5c0e1461030c576100d5565b80638d859f3e146101ce57806392d2f118146101f95780639d0214cb14610222576100d5565b806327b37534146100df578063365b98b2146101085780633ccfd60b1461014557806359a4df2f1461015c5780635ae2afa41461018757806370e8d7f314610191576100d5565b366100d5576100d3610335565b005b6100dd610335565b005b3480156100eb57600080fd5b506101066004803603810190610101919061160f565b6106d9565b005b34801561011457600080fd5b5061012f600480360381019061012a9190611685565b610a72565b60405161013c91906116c1565b60405180910390f35b34801561015157600080fd5b5061015a610ab1565b005b34801561016857600080fd5b50610171610bf3565b60405161017e9190611775565b60405180910390f35b61018f610335565b005b34801561019d57600080fd5b506101b860048036038101906101b39190611797565b610c2c565b6040516101c591906116c1565b60405180910390f35b3480156101da57600080fd5b506101e3610c5f565b6040516101f091906117d3565b60405180910390f35b34801561020557600080fd5b50610220600480360381019061021b9190611797565b610c6a565b005b34801561022e57600080fd5b5061024960048036038101906102449190611685565b610e64565b60405161025e999897969594939291906117ee565b60405180910390f35b34801561027357600080fd5b5061028e600480360381019061028991906118ac565b61129a565b60405161029b91906118f4565b60405180910390f35b3480156102b057600080fd5b506102cb60048036038101906102c691906118ac565b6112ba565b6040516102d8919061191e565b60405180910390f35b3480156102ed57600080fd5b506102f66112da565b60405161030391906116c1565b60405180910390f35b34801561031857600080fd5b50610333600480360381019061032e9190611a6e565b6112fe565b005b66b1a2bc2ec50000340361069c57600260009054906101000a900460ff1660ff166001805490501161039c576040517f08c379a000000000000000000000000000000000000000000000000000000000815260040161039390611bef565b60405180910390fd5b60001515600360003373ffffffffffffffffffffffffffffffffffffffff1673ffffffffffffffffffffffffffffffffffffffff16815260200190815260200160002060009054906101000a900460ff161515036104b0576000339080600181540180825580915050600190039060005260206000200160009091909190916101000a81548173ffffffffffffffffffffffffffffffffffffffff021916908373ffffffffffffffffffffffffffffffffffffffff1602179055506001600360003373ffffffffffffffffffffffffffffffffffffffff1673ffffffffffffffffffffffffffffffffffffffff16815260200190815260200160002060006101000a81548160ff0219169083151502179055505b336001600260009054906101000a900460ff1660ff16815481106104d7576104d6611c0f565b5b906000526020600020906009020160080160006101000a81548173ffffffffffffffffffffffffffffffffffffffff021916908373ffffffffffffffffffffffffffffffffffffffff1602179055503360046000600260009054906101000a900460ff1660ff1660ff16815260200190815260200160002060006101000a81548173ffffffffffffffffffffffffffffffffffffffff021916908373ffffffffffffffffffffffffffffffffffffffff160217905550600560003373ffffffffffffffffffffffffffffffffffffffff1673ffffffffffffffffffffffffffffffffffffffff168152602001908152602001600020600081819054906101000a900460ff16809291906105e990611c6d565b91906101000a81548160ff021916908360ff160217905550503373ffffffffffffffffffffffffffffffffffffffff167f2e2a94b1bf4a5580acb10f544a4b2e39c602981d27e56bf90e73f0074d33b6b2600260009054906101000a900460ff16604051610657919061191e565b60405180910390a26002600081819054906101000a900460ff168092919061067e90611c6d565b91906101000a81548160ff021916908360ff160217905550506106d7565b6040517f08c379a00000000000000000000000000000000000000000000000000000000081526004016106ce90611ce2565b60405180910390fd5b565b81600460008260ff1660ff16815260200190815260200160002060009054906101000a900473ffffffffffffffffffffffffffffffffffffffff1673ffffffffffffffffffffffffffffffffffffffff163373ffffffffffffffffffffffffffffffffffffffff161461074b57600080fd5b60001515600360008473ffffffffffffffffffffffffffffffffffffffff1673ffffffffffffffffffffffffffffffffffffffff16815260200190815260200160002060009054906101000a900460ff1615150361085f576000829080600181540180825580915050600190039060005260206000200160009091909190916101000a81548173ffffffffffffffffffffffffffffffffffffffff021916908373ffffffffffffffffffffffffffffffffffffffff1602179055506001600360008473ffffffffffffffffffffffffffffffffffffffff1673ffffffffffffffffffffffffffffffffffffffff16815260200190815260200160002060006101000a81548160ff0219169083151502179055505b8160018460ff168154811061087757610876611c0f565b5b906000526020600020906009020160080160006101000a81548173ffffffffffffffffffffffffffffffffffffffff021916908373ffffffffffffffffffffffffffffffffffffffff16021790555081600460008560ff1660ff16815260200190815260200160002060006101000a81548173ffffffffffffffffffffffffffffffffffffffff021916908373ffffffffffffffffffffffffffffffffffffffff160217905550600560003373ffffffffffffffffffffffffffffffffffffffff1673ffffffffffffffffffffffffffffffffffffffff168152602001908152602001600020600081819054906101000a900460ff168092919061097a90611d02565b91906101000a81548160ff021916908360ff16021790555050600560008373ffffffffffffffffffffffffffffffffffffffff1673ffffffffffffffffffffffffffffffffffffffff168152602001908152602001600020600081819054906101000a900460ff16809291906109ef90611c6d565b91906101000a81548160ff021916908360ff160217905550508173ffffffffffffffffffffffffffffffffffffffff163373ffffffffffffffffffffffffffffffffffffffff167f2c4d9d1041355b152e80b28195d8cd57a1363203c2b1a39c0559f0e757747d5c85604051610a65919061191e565b60405180910390a3505050565b60008181548110610a8257600080fd5b906000526020600020016000915054906101000a900473ffffffffffffffffffffffffffffffffffffffff1681565b7f000000000000000000000000000000000000000000000000000000000000000073ffffffffffffffffffffffffffffffffffffffff163373ffffffffffffffffffffffffffffffffffffffff1603610bb65760003373ffffffffffffffffffffffffffffffffffffffff1647604051610b2a90611d5c565b60006040518083038185875af1925050503d8060008114610b67576040519150601f19603f3d011682016040523d82523d6000602084013e610b6c565b606091505b5050905080610bb0576040517f08c379a0000000000000000000000000000000000000000000000000000000008152600401610ba790611dbd565b60405180910390fd5b50610bf1565b6040517f08c379a0000000000000000000000000000000000000000000000000000000008152600401610be890611e4f565b60405180910390fd5b565b6040518060400160405280600c81526020017f4e667473206465204d617469000000000000000000000000000000000000000081525081565b60046020528060005260406000206000915054906101000a900473ffffffffffffffffffffffffffffffffffffffff1681565b66b1a2bc2ec5000081565b80600460008260ff1660ff16815260200190815260200160002060009054906101000a900473ffffffffffffffffffffffffffffffffffffffff1673ffffffffffffffffffffffffffffffffffffffff163373ffffffffffffffffffffffffffffffffffffffff1614610cdc57600080fd5b600060018360ff1681548110610cf557610cf4611c0f565b5b906000526020600020906009020160080160006101000a81548173ffffffffffffffffffffffffffffffffffffffff021916908373ffffffffffffffffffffffffffffffffffffffff1602179055506000600460008460ff1660ff16815260200190815260200160002060006101000a81548173ffffffffffffffffffffffffffffffffffffffff021916908373ffffffffffffffffffffffffffffffffffffffff160217905550600560003373ffffffffffffffffffffffffffffffffffffffff1673ffffffffffffffffffffffffffffffffffffffff168152602001908152602001600020600081819054906101000a900460ff1680929190610df990611d02565b91906101000a81548160ff021916908360ff160217905550503373ffffffffffffffffffffffffffffffffffffffff167f80214583370bc995c8e6751908bf211ddd452f3c71dff4373dba20fff77a057a83604051610e58919061191e565b60405180910390a25050565b60018181548110610e7457600080fd5b9060005260206000209060090201600091509050806000015490806001018054610e9d90611e9e565b80601f0160208091040260200160405190810160405280929190818152602001828054610ec990611e9e565b8015610f165780601f10610eeb57610100808354040283529160200191610f16565b820191906000526020600020905b815481529060010190602001808311610ef957829003601f168201915b505050505090806002018054610f2b90611e9e565b80601f0160208091040260200160405190810160405280929190818152602001828054610f5790611e9e565b8015610fa45780601f10610f7957610100808354040283529160200191610fa4565b820191906000526020600020905b815481529060010190602001808311610f8757829003601f168201915b505050505090806003018054610fb990611e9e565b80601f0160208091040260200160405190810160405280929190818152602001828054610fe590611e9e565b80156110325780601f1061100757610100808354040283529160200191611032565b820191906000526020600020905b81548152906001019060200180831161101557829003601f168201915b50505050509080600401805461104790611e9e565b80601f016020809104026020016040519081016040528092919081815260200182805461107390611e9e565b80156110c05780601f10611095576101008083540402835291602001916110c0565b820191906000526020600020905b8154815290600101906020018083116110a357829003601f168201915b5050505050908060050180546110d590611e9e565b80601f016020809104026020016040519081016040528092919081815260200182805461110190611e9e565b801561114e5780601f106111235761010080835404028352916020019161114e565b820191906000526020600020905b81548152906001019060200180831161113157829003601f168201915b50505050509080600601805461116390611e9e565b80601f016020809104026020016040519081016040528092919081815260200182805461118f90611e9e565b80156111dc5780601f106111b1576101008083540402835291602001916111dc565b820191906000526020600020905b8154815290600101906020018083116111bf57829003601f168201915b5050505050908060070180546111f190611e9e565b80601f016020809104026020016040519081016040528092919081815260200182805461121d90611e9e565b801561126a5780601f1061123f5761010080835404028352916020019161126a565b820191906000526020600020905b81548152906001019060200180831161124d57829003601f168201915b5050505050908060080160009054906101000a900473ffffffffffffffffffffffffffffffffffffffff16905089565b60036020528060005260406000206000915054906101000a900460ff1681565b60056020528060005260406000206000915054906101000a900460ff1681565b7f000000000000000000000000000000000000000000000000000000000000000081565b7f000000000000000000000000000000000000000000000000000000000000000073ffffffffffffffffffffffffffffffffffffffff163373ffffffffffffffffffffffffffffffffffffffff160361152157600160405180610120016040528060018054905081526020018881526020018781526020018681526020018581526020018481526020018381526020016040518060400160405280600781526020017f697066733a2f2f00000000000000000000000000000000000000000000000000815250846040516020016113d6929190611f0b565b6040516020818303038152906040528152602001600073ffffffffffffffffffffffffffffffffffffffff16815250908060018154018082558091505060019003906000526020600020906009020160009091909190915060008201518160000155602082015181600101908161144d91906120db565b50604082015181600201908161146391906120db565b50606082015181600301908161147991906120db565b50608082015181600401908161148f91906120db565b5060a08201518160050190816114a591906120db565b5060c08201518160060190816114bb91906120db565b5060e08201518160070190816114d191906120db565b506101008201518160080160006101000a81548173ffffffffffffffffffffffffffffffffffffffff021916908373ffffffffffffffffffffffffffffffffffffffff160217905550505061155c565b6040517f08c379a000000000000000000000000000000000000000000000000000000000815260040161155390611e4f565b60405180910390fd5b505050505050565b6000604051905090565b600080fd5b600080fd5b600060ff82169050919050565b61158e81611578565b811461159957600080fd5b50565b6000813590506115ab81611585565b92915050565b600073ffffffffffffffffffffffffffffffffffffffff82169050919050565b60006115dc826115b1565b9050919050565b6115ec816115d1565b81146115f757600080fd5b50565b600081359050611609816115e3565b92915050565b600080604083850312156116265761162561156e565b5b60006116348582860161159c565b9250506020611645858286016115fa565b9150509250929050565b6000819050919050565b6116628161164f565b811461166d57600080fd5b50565b60008135905061167f81611659565b92915050565b60006020828403121561169b5761169a61156e565b5b60006116a984828501611670565b91505092915050565b6116bb816115d1565b82525050565b60006020820190506116d660008301846116b2565b92915050565b600081519050919050565b600082825260208201905092915050565b60005b838110156117165780820151818401526020810190506116fb565b83811115611725576000848401525b50505050565b6000601f19601f8301169050919050565b6000611747826116dc565b61175181856116e7565b93506117618185602086016116f8565b61176a8161172b565b840191505092915050565b6000602082019050818103600083015261178f818461173c565b905092915050565b6000602082840312156117ad576117ac61156e565b5b60006117bb8482850161159c565b91505092915050565b6117cd8161164f565b82525050565b60006020820190506117e860008301846117c4565b92915050565b600061012082019050611804600083018c6117c4565b8181036020830152611816818b61173c565b9050818103604083015261182a818a61173c565b9050818103606083015261183e818961173c565b90508181036080830152611852818861173c565b905081810360a0830152611866818761173c565b905081810360c083015261187a818661173c565b905081810360e083015261188e818561173c565b905061189e6101008301846116b2565b9a9950505050505050505050565b6000602082840312156118c2576118c161156e565b5b60006118d0848285016115fa565b91505092915050565b60008115159050919050565b6118ee816118d9565b82525050565b600060208201905061190960008301846118e5565b92915050565b61191881611578565b82525050565b6000602082019050611933600083018461190f565b92915050565b600080fd5b600080fd5b7f4e487b7100000000000000000000000000000000000000000000000000000000600052604160045260246000fd5b61197b8261172b565b810181811067ffffffffffffffff8211171561199a57611999611943565b5b80604052505050565b60006119ad611564565b90506119b98282611972565b919050565b600067ffffffffffffffff8211156119d9576119d8611943565b5b6119e28261172b565b9050602081019050919050565b82818337600083830152505050565b6000611a11611a0c846119be565b6119a3565b905082815260208101848484011115611a2d57611a2c61193e565b5b611a388482856119ef565b509392505050565b600082601f830112611a5557611a54611939565b5b8135611a658482602086016119fe565b91505092915050565b60008060008060008060c08789031215611a8b57611a8a61156e565b5b600087013567ffffffffffffffff811115611aa957611aa8611573565b5b611ab589828a01611a40565b965050602087013567ffffffffffffffff811115611ad657611ad5611573565b5b611ae289828a01611a40565b955050604087013567ffffffffffffffff811115611b0357611b02611573565b5b611b0f89828a01611a40565b945050606087013567ffffffffffffffff811115611b3057611b2f611573565b5b611b3c89828a01611a40565b935050608087013567ffffffffffffffff811115611b5d57611b5c611573565b5b611b6989828a01611a40565b92505060a087013567ffffffffffffffff811115611b8a57611b89611573565b5b611b9689828a01611a40565b9150509295509295509295565b7f536f7272792c20746865726520617265206e6f206d6f7265206e667473000000600082015250565b6000611bd9601d836116e7565b9150611be482611ba3565b602082019050919050565b60006020820190508181036000830152611c0881611bcc565b9050919050565b7f4e487b7100000000000000000000000000000000000000000000000000000000600052603260045260246000fd5b7f4e487b7100000000000000000000000000000000000000000000000000000000600052601160045260246000fd5b6000611c7882611578565b915060ff8203611c8b57611c8a611c3e565b5b600182019050919050565b7f596f75206d7573742073656e6420302e30352065746800000000000000000000600082015250565b6000611ccc6016836116e7565b9150611cd782611c96565b602082019050919050565b60006020820190508181036000830152611cfb81611cbf565b9050919050565b6000611d0d82611578565b915060008203611d2057611d1f611c3e565b5b600182039050919050565b600081905092915050565b50565b6000611d46600083611d2b565b9150611d5182611d36565b600082019050919050565b6000611d6782611d39565b9150819050919050565b7f5472616e73616374696f6e207265766572746564000000000000000000000000600082015250565b6000611da76014836116e7565b9150611db282611d71565b602082019050919050565b60006020820190508181036000830152611dd681611d9a565b9050919050565b7f596f75206d75737420626520746865206465706c6f796572206f66207468652060008201527f636f6e747261637420746f2072756e20746869732066756e6374696f6e000000602082015250565b6000611e39603d836116e7565b9150611e4482611ddd565b604082019050919050565b60006020820190508181036000830152611e6881611e2c565b9050919050565b7f4e487b7100000000000000000000000000000000000000000000000000000000600052602260045260246000fd5b60006002820490506001821680611eb657607f821691505b602082108103611ec957611ec8611e6f565b5b50919050565b600081905092915050565b6000611ee5826116dc565b611eef8185611ecf565b9350611eff8185602086016116f8565b80840191505092915050565b6000611f178285611eda565b9150611f238284611eda565b91508190509392505050565b60008190508160005260206000209050919050565b60006020601f8301049050919050565b600082821b905092915050565b600060088302611f917fffffffffffffffffffffffffffffffffffffffffffffffffffffffffffffffff82611f54565b611f9b8683611f54565b95508019841693508086168417925050509392505050565b6000819050919050565b6000611fd8611fd3611fce8461164f565b611fb3565b61164f565b9050919050565b6000819050919050565b611ff283611fbd565b612006611ffe82611fdf565b848454611f61565b825550505050565b600090565b61201b61200e565b612026818484611fe9565b505050565b5b8181101561204a5761203f600082612013565b60018101905061202c565b5050565b601f82111561208f5761206081611f2f565b61206984611f44565b81016020851015612078578190505b61208c61208485611f44565b83018261202b565b50505b505050565b600082821c905092915050565b60006120b260001984600802612094565b1980831691505092915050565b60006120cb83836120a1565b9150826002028217905092915050565b6120e4826116dc565b67ffffffffffffffff8111156120fd576120fc611943565b5b6121078254611e9e565b61211282828561204e565b600060209050601f8311600181146121455760008415612133578287015190505b61213d85826120bf565b8655506121a5565b601f19841661215386611f2f565b60005b8281101561217b57848901518255600182019150602085019450602081019050612156565b868310156121985784890151612194601f8916826120a1565b8355505b6001600288020188555050505b50505050505056fea2646970667358221220983a2a9fae802b1bc6dfe5942f5e56bc6efc36e627c2e7ec84207a256c98992164736f6c634300080f0033",
  "linkReferences": {},
  "deployedLinkReferences": {}
}